:0300000002018575
:0C018500787FE4F6D8FD75810E0201CCF5
:0A0253003F065B4F666D7D077F6F6D
:10023100010800010A00010D00010B00010C000181
:020241000900B2
:040244007F327E0087
:0B024800EF1FAC0670011E4C70F62288
:1000CE00120003438901758C3C758AB0D2A9D2AF58
:1000DE00D28CE509C394645019E50EC39404500400
:1000EE00050E8011E4F50EE509C394645007050969
:1000FE008003750E05E50EC3950D5010E5087006CC
:10010E00C2A0D2A1800AD2A0C2A18004D2A0D2A144
:10011E00E50D14600E1460131460182403701AD2C7
:10012E00B18002C2B1D2B2D2B3800ED2B1C2B2D2BB
:10013E00B38006D2B1D2B2C2B3E50A75F064849030
:10014E00025393F580C2A2120244D2A2E50A75F0C0
:10015E006484E5F075F00A8493F580C2A31202441C
:10016E00D2A3E50A75F00A84E5F093F580C2A412D5
:07017E000244D2A40200E0DC
:03000B0002000EE2
:10000E00C0E0C0F0C083C082C0D075D000C000C0B8
:10001E0001C002C003C004C005C006C007E50BC383
:10002E00940A5004050B8011750B001202118F0AF1
:10003E00E50AC413135403F50DE50DB4011DE50CCB
:10004E00C394A05004050C8012750C00E5087004D2
:10005E007F0180027F008F08750900E50DB4021D37
:10006E00E50CC394645004050C8012750C00E50871
:10007E0070047F0180027F008F08750900E50DB4C2
:10008E00031DE50CC3943C5004050C8012750C0046
:10009E00E50870047F0180027F008F0875090075E6
:1000AE008C3C758AB0D007D006D005D004D003D0D2
:1000BE0002D001D000D0D0D082D083D0F0D0E032A8
:05000300C2B6C2B422E8
:1002110000B2B7D2B6E4FF00B2B70FBF0AF9C2B657
:0F02210020B50500B2B780F8D2B400AF90C2B4D8
:0102300022AB
:100191000200CEE493A3F8E493A34003F68001F2B6
:1001A10008DFF48029E493A3F85407240CC8C3336F
:1001B100C4540F4420C8834004F456800146F6DF3E
:1001C100E4800B0102040810204080900231E47E9B
:1001D100019360BCA3FF543F30E509541FFEE49333
:1001E100A360010ECF54C025E060A840B8E493A3FA
:1001F100FAE493A3F8E493A3C8C582C8CAC583CA25
:10020100F0A3C8C582C8CAC583CADFE9DEE780BEDC
:0102430000BA
:00000001FF
